{
  "_format": "hh-sol-artifact-1",
  "contractName": "AuditBadge",
  "sourceName": "contracts/AuditBadge.sol",
  "abi": [
    {
      "inputs": [],
      "stateMutability": "nonpayable",
      "type": "constructor"
    },
    {
      "anonymous": false,
      "inputs": [
        {
          "indexed": true,
          "internalType": "address",
          "name": "owner",
          "type": "address"
        },
        {
          "indexed": true,
          "internalType": "address",
          "name": "approved",
          "type": "address"
        },
        {
          "indexed": true,
          "internalType": "uint256",
          "name": "tokenId",
          "type": "uint256"
        }
      ],
      "name": "Approval",
      "type": "event"
    },
    {
      "anonymous": false,
      "inputs": [
        {
          "indexed": true,
          "internalType": "address",
          "name": "owner",
          "type": "address"
        },
        {
          "indexed": true,
          "internalType": "address",
          "name": "operator",
          "type": "address"
        },
        {
          "indexed": false,
          "internalType": "bool",
          "name": "approved",
          "type": "bool"
        }
      ],
      "name": "ApprovalForAll",
      "type": "event"
    },
    {
      "anonymous": false,
      "inputs": [
        {
          "indexed": true,
          "internalType": "address",
          "name": "recipient",
          "type": "address"
        },
        {
          "indexed": true,
          "internalType": "uint256",
          "name": "tokenId",
          "type": "uint256"
        },
        {
          "indexed": false,
          "internalType": "string",
          "name": "contractName",
          "type": "string"
        },
        {
          "indexed": false,
          "internalType": "uint256",
          "name": "securityScore",
          "type": "uint256"
        },
        {
          "indexed": false,
          "internalType": "string",
          "name": "ipfsCid",
          "type": "string"
        }
      ],
      "name": "BadgeMinted",
      "type": "event"
    },
    {
      "anonymous": false,
      "inputs": [
        {
          "indexed": true,
          "internalType": "address",
          "name": "previousOwner",
          "type": "address"
        },
        {
          "indexed": true,
          "internalType": "address",
          "name": "newOwner",
          "type": "address"
        }
      ],
      "name": "OwnershipTransferred",
      "type": "event"
    },
    {
      "anonymous": false,
      "inputs": [
        {
          "indexed": true,
          "internalType": "address",
          "name": "from",
          "type": "address"
        },
        {
          "indexed": true,
          "internalType": "address",
          "name": "to",
          "type": "address"
        },
        {
          "indexed": true,
          "internalType": "uint256",
          "name": "tokenId",
          "type": "uint256"
        }
      ],
      "name": "Transfer",
      "type": "event"
    },
    {
      "inputs": [
        {
          "internalType": "address",
          "name": "to",
          "type": "address"
        },
        {
          "internalType": "uint256",
          "name": "tokenId",
          "type": "uint256"
        }
      ],
      "name": "approve",
      "outputs": [],
      "stateMutability": "nonpayable",
      "type": "function"
    },
    {
      "inputs": [
        {
          "internalType": "uint256",
          "name": "",
          "type": "uint256"
        }
      ],
      "name": "badges",
      "outputs": [
        {
          "internalType": "string",
          "name": "contractName",
          "type": "string"
        },
        {
          "internalType": "uint256",
          "name": "securityScore",
          "type": "uint256"
        },
        {
          "internalType": "string",
          "name": "ipfsCid",
          "type": "string"
        },
        {
          "internalType": "uint256",
          "name": "timestamp",
          "type": "uint256"
        }
      ],
      "stateMutability": "view",
      "type": "function"
    },
    {
      "inputs": [
        {
          "internalType": "address",
          "name": "owner",
          "type": "address"
        }
      ],
      "name": "balanceOf",
      "outputs": [
        {
          "internalType": "uint256",
          "name": "",
          "type": "uint256"
        }
      ],
      "stateMutability": "view",
      "type": "function"
    },
    {
      "inputs": [
        {
          "internalType": "uint256",
          "name": "tokenId",
          "type": "uint256"
        }
      ],
      "name": "getApproved",
      "outputs": [
        {
          "internalType": "address",
          "name": "",
          "type": "address"
        }
      ],
      "stateMutability": "view",
      "type": "function"
    },
    {
      "inputs": [
        {
          "internalType": "uint256",
          "name": "tokenId",
          "type": "uint256"
        }
      ],
      "name": "getBadge",
      "outputs": [
        {
          "internalType": "string",
          "name": "contractName",
          "type": "string"
        },
        {
          "internalType": "uint256",
          "name": "securityScore",
          "type": "uint256"
        },
        {
          "internalType": "string",
          "name": "ipfsCid",
          "type": "string"
        },
        {
          "internalType": "uint256",
          "name": "timestamp",
          "type": "uint256"
        }
      ],
      "stateMutability": "view",
      "type": "function"
    },
    {
      "inputs": [
        {
          "internalType": "address",
          "name": "owner",
          "type": "address"
        },
        {
          "internalType": "address",
          "name": "operator",
          "type": "address"
        }
      ],
      "name": "isApprovedForAll",
      "outputs": [
        {
          "internalType": "bool",
          "name": "",
          "type": "bool"
        }
      ],
      "stateMutability": "view",
      "type": "function"
    },
    {
      "inputs": [
        {
          "internalType": "address",
          "name": "recipient",
          "type": "address"
        },
        {
          "internalType": "string",
          "name": "_contractName",
          "type": "string"
        },
        {
          "internalType": "uint256",
          "name": "_securityScore",
          "type": "uint256"
        },
        {
          "internalType": "string",
          "name": "_ipfsCid",
          "type": "string"
        }
      ],
      "name": "mint",
      "outputs": [
        {
          "internalType": "uint256",
          "name": "",
          "type": "uint256"
        }
      ],
      "stateMutability": "nonpayable",
      "type": "function"
    },
    {
      "inputs": [],
      "name": "name",
      "outputs": [
        {
          "internalType": "string",
          "name": "",
          "type": "string"
        }
      ],
      "stateMutability": "view",
      "type": "function"
    },
    {
      "inputs": [],
      "name": "owner",
      "outputs": [
        {
          "internalType": "address",
          "name": "",
          "type": "address"
        }
      ],
      "stateMutability": "view",
      "type": "function"
    },
    {
      "inputs": [
        {
          "internalType": "uint256",
          "name": "tokenId",
          "type": "uint256"
        }
      ],
      "name": "ownerOf",
      "outputs": [
        {
          "internalType": "address",
          "name": "",
          "type": "address"
        }
      ],
      "stateMutability": "view",
      "type": "function"
    },
    {
      "inputs": [],
      "name": "renounceOwnership",
      "outputs": [],
      "stateMutability": "nonpayable",
      "type": "function"
    },
    {
      "inputs": [
        {
          "internalType": "address",
          "name": "from",
          "type": "address"
        },
        {
          "internalType": "address",
          "name": "to",
          "type": "address"
        },
        {
          "internalType": "uint256",
          "name": "tokenId",
          "type": "uint256"
        }
      ],
      "name": "safeTransferFrom",
      "outputs": [],
      "stateMutability": "nonpayable",
      "type": "function"
    },
    {
      "inputs": [
        {
          "internalType": "address",
          "name": "",
          "type": "address"
        },
        {
          "internalType": "address",
          "name": "",
          "type": "address"
        },
        {
          "internalType": "uint256",
          "name": "",
          "type": "uint256"
        },
        {
          "internalType": "bytes",
          "name": "",
          "type": "bytes"
        }
      ],
      "name": "safeTransferFrom",
      "outputs": [],
      "stateMutability": "pure",
      "type": "function"
    },
    {
      "inputs": [
        {
          "internalType": "address",
          "name": "operator",
          "type": "address"
        },
        {
          "internalType": "bool",
          "name": "approved",
          "type": "bool"
        }
      ],
      "name": "setApprovalForAll",
      "outputs": [],
      "stateMutability": "nonpayable",
      "type": "function"
    },
    {
      "inputs": [
        {
          "internalType": "bytes4",
          "name": "interfaceId",
          "type": "bytes4"
        }
      ],
      "name": "supportsInterface",
      "outputs": [
        {
          "internalType": "bool",
          "name": "",
          "type": "bool"
        }
      ],
      "stateMutability": "view",
      "type": "function"
    },
    {
      "inputs": [],
      "name": "symbol",
      "outputs": [
        {
          "internalType": "string",
          "name": "",
          "type": "string"
        }
      ],
      "stateMutability": "view",
      "type": "function"
    },
    {
      "inputs": [
        {
          "internalType": "uint256",
          "name": "tokenId",
          "type": "uint256"
        }
      ],
      "name": "tokenURI",
      "outputs": [
        {
          "internalType": "string",
          "name": "",
          "type": "string"
        }
      ],
      "stateMutability": "view",
      "type": "function"
    },
    {
      "inputs": [],
      "name": "totalMinted",
      "outputs": [
        {
          "internalType": "uint256",
          "name": "",
          "type": "uint256"
        }
      ],
      "stateMutability": "view",
      "type": "function"
    },
    {
      "inputs": [
        {
          "internalType": "address",
          "name": "",
          "type": "address"
        },
        {
          "internalType": "address",
          "name": "",
          "type": "address"
        },
        {
          "internalType": "uint256",
          "name": "",
          "type": "uint256"
        }
      ],
      "name": "transferFrom",
      "outputs": [],
      "stateMutability": "pure",
      "type": "function"
    },
    {
      "inputs": [
        {
          "internalType": "address",
          "name": "newOwner",
          "type": "address"
        }
      ],
      "name": "transferOwnership",
      "outputs": [],
      "stateMutability": "nonpayable",
      "type": "function"
    }
  ],
  "bytecode": "0x60806040523480156200001157600080fd5b506040518060400160405280600b81526020017f41756469742042616467650000000000000000000000000000000000000000008152506040518060400160405280600681526020017f414241444745000000000000000000000000000000000000000000000000000081525081600090816200008f919062000412565b508060019081620000a1919062000412565b505050620000c4620000b8620000ca60201b60201c565b620000d260201b60201c565b620004f9565b600033905090565b6000600660009054906101000a900473ffffffffffffffffffffffffffffffffffffffff16905081600660006101000a81548173ffffffffffffffffffffffffffffffffffffffff021916908373ffffffffffffffffffffffffffffffffffffffff1602179055508173ffffffffffffffffffffffffffffffffffffffff168173ffffffffffffffffffffffffffffffffffffffff167f8be0079c531659141344cd1fd0a4f28419497f9722a3daafe3b4186f6b6457e060405160405180910390a35050565b600081519050919050565b7f4e487b7100000000000000000000000000000000000000000000000000000000600052604160045260246000fd5b7f4e487b7100000000000000000000000000000000000000000000000000000000600052602260045260246000fd5b600060028204905060018216806200021a57607f821691505b60208210810362000230576200022f620001d2565b5b50919050565b60008190508160005260206000209050919050565b60006020601f8301049050919050565b600082821b905092915050565b6000600883026200029a7fffffffffffffffffffffffffffffffffffffffffffffffffffffffffffffffff826200025b565b620002a686836200025b565b95508019841693508086168417925050509392505050565b6000819050919050565b6000819050919050565b6000620002f3620002ed620002e784620002be565b620002c8565b620002be565b9050919050565b6000819050919050565b6200030f83620002d2565b620003276200031e82620002fa565b84845462000268565b825550505050565b600090565b6200033e6200032f565b6200034b81848462000304565b505050565b5b8181101562000373576200036760008262000334565b60018101905062000351565b5050565b601f821115620003c2576200038c8162000236565b62000397846200024b565b81016020851015620003a7578190505b620003bf620003b6856200024b565b83018262000350565b50505b505050565b600082821c905092915050565b6000620003e760001984600802620003c7565b1980831691505092915050565b6000620004028383620003d4565b9150826002028217905092915050565b6200041d8262000198565b67ffffffffffffffff811115620004395762000438620001a3565b5b62000445825462000201565b6200045282828562000377565b600060209050601f8311600181146200048a576000841562000475578287015190505b620004818582620003f4565b865550620004f1565b601f1984166200049a8662000236565b60005b82811015620004c4578489015182556001820191506020850194506020810190506200049d565b86831015620004e45784890151620004e0601f891682620003d4565b8355505b6001600288020188555050505b505050505050565b612c0b80620005096000396000f3fe608060405234801561001057600080fd5b506004361061012c5760003560e01c80638d838622116100ad578063a2309ff811610071578063a2309ff81461035b578063b88d4fde14610379578063c87b56dd14610395578063e985e9c5146103c5578063f2fde38b146103f55761012c565b80638d8386221461029d5780638da5cb5b146102d057806395d89b41146102ee57806398e36d8b1461030c578063a22cb4651461033f5761012c565b80633dd90430116100f45780633dd90430146101e757806342842e0e146102175780636352211e1461023357806370a0823114610263578063715018a6146102935761012c565b806301ffc9a71461013157806306fdde0314610161578063081812fc1461017f578063095ea7b3146101af57806323b872dd146101cb575b600080fd5b61014b60048036038101906101469190611a86565b610411565b6040516101589190611ace565b60405180910390f35b6101696104f3565b6040516101769190611b79565b60405180910390f35b61019960048036038101906101949190611bd1565b610585565b6040516101a69190611c3f565b60405180910390f35b6101c960048036038101906101c49190611c86565b6105cb565b005b6101e560048036038101906101e09190611cc6565b6106e2565b005b61020160048036038101906101fc9190611e4e565b61071d565b60405161020e9190611efc565b60405180910390f35b610231600480360381019061022c9190611cc6565b610826565b005b61024d60048036038101906102489190611bd1565b610846565b60405161025a9190611c3f565b60405180910390f35b61027d60048036038101906102789190611f17565b6108cc565b60405161028a9190611efc565b60405180910390f35b61029b610983565b005b6102b760048036038101906102b29190611bd1565b610997565b6040516102c79493929190611f44565b60405180910390f35b6102d8610b1c565b6040516102e59190611c3f565b60405180910390f35b6102f6610b46565b6040516103039190611b79565b60405180910390f35b61032660048036038101906103219190611bd1565b610bd8565b6040516103369493929190611f44565b60405180910390f35b61035960048036038101906103549190611fc3565b610d18565b005b610363610d2e565b6040516103709190611efc565b60405180910390f35b610393600480360381019061038e91906120a4565b610d38565b005b6103af60048036038101906103aa9190611bd1565b610d73565b6040516103bc9190611b79565b60405180910390f35b6103df60048036038101906103da9190612127565b610ddb565b6040516103ec9190611ace565b60405180910390f35b61040f600480360381019061040a9190611f17565b610e6f565b005b60007f80ac58cd000000000000000000000000000000000000000000000000000000007bffffffffffffffffffffffffffffffffffffffffffffffffffffffff1916827bffffffffffffffffffffffffffffffffffffffffffffffffffffffff191614806104dc57507f5b5e139f000000000000000000000000000000000000000000000000000000007bffffffffffffffffffffffffffffffffffffffffffffffffffffffff1916827bffffffffffffffffffffffffffffffffffffffffffffffffffffffff1916145b806104ec57506104eb82610ef2565b5b9050919050565b60606000805461050290612196565b80601f016020809104026020016040519081016040528092919081815260200182805461052e90612196565b801561057b5780601f106105505761010080835404028352916020019161057b565b820191906000526020600020905b81548152906001019060200180831161055e57829003601f168201915b5050505050905090565b600061059082610f5c565b6004600083815260200190815260200160002060009054906101000a900473ffffffffffffffffffffffffffffffffffffffff169050919050565b60006105d682610846565b90508073ffffffffffffffffffffffffffffffffffffffff168373ffffffffffffffffffffffffffffffffffffffff1603610646576040517f08c379a000000000000000000000000000000000000000000000000000000000815260040161063d90612239565b60405180910390fd5b8073ffffffffffffffffffffffffffffffffffffffff16610665610fa7565b73ffffffffffffffffffffffffffffffffffffffff16148061069457506106938161068e610fa7565b610ddb565b5b6106d3576040517f08c379a00000000000000000000000000000000000000000000000000000000081526004016106ca906122cb565b60405180910390fd5b6106dd8383610faf565b505050565b6040517f08c379a000000000000000000000000000000000000000000000000000000000815260040161071490612337565b60405180910390fd5b6000610727611068565b600060075490506007600081548092919061074190612386565b919050555061075086826110e6565b604051806080016040528086815260200185815260200184815260200142815250600860008381526020019081526020016000206000820151816000019081610799919061257a565b506020820151816001015560408201518160020190816107b9919061257a565b5060608201518160030155905050808673ffffffffffffffffffffffffffffffffffffffff167f837fd386256fdd463483338fa799b9d5ffa206f011dfd23ac5721db6b8f56bcd8787876040516108129392919061264c565b60405180910390a380915050949350505050565b61084183838360405180602001604052806000815250610d38565b505050565b60008061085283611104565b9050600073ffffffffffffffffffffffffffffffffffffffff168173ffffffffffffffffffffffffffffffffffffffff16036108c3576040517f08c379a00000000000000000000000000000000000000000000000000000000081526004016108ba906126dd565b60405180910390fd5b80915050919050565b60008073ffffffffffffffffffffffffffffffffffffffff168273ffffffffffffffffffffffffffffffffffffffff160361093c576040517f08c379a00000000000000000000000000000000000000000000000000000000081526004016109339061276f565b60405180910390fd5b600360008373ffffffffffffffffffffffffffffffffffffffff1673ffffffffffffffffffffffffffffffffffffffff168152602001908152602001600020549050919050565b61098b611068565b6109956000611141565b565b606060006060600080600860008781526020019081526020016000206040518060800160405290816000820180546109ce90612196565b80601f01602080910402602001604051908101604052809291908181526020018280546109fa90612196565b8015610a475780601f10610a1c57610100808354040283529160200191610a47565b820191906000526020600020905b815481529060010190602001808311610a2a57829003601f168201915b5050505050815260200160018201548152602001600282018054610a6a90612196565b80601f0160208091040260200160405190810160405280929190818152602001828054610a9690612196565b8015610ae35780601f10610ab857610100808354040283529160200191610ae3565b820191906000526020600020905b815481529060010190602001808311610ac657829003601f168201915b50505050508152602001600382015481525050905080600001518160200151826040015183606001519450945094509450509193509193565b6000600660009054906101000a900473ffffffffffffffffffffffffffffffffffffffff16905090565b606060018054610b5590612196565b80601f0160208091040260200160405190810160405280929190818152602001828054610b8190612196565b8015610bce5780601f10610ba357610100808354040283529160200191610bce565b820191906000526020600020905b815481529060010190602001808311610bb157829003601f168201915b5050505050905090565b6008602052806000526040600020600091509050806000018054610bfb90612196565b80601f0160208091040260200160405190810160405280929190818152602001828054610c2790612196565b8015610c745780601f10610c4957610100808354040283529160200191610c74565b820191906000526020600020905b815481529060010190602001808311610c5757829003601f168201915b505050505090806001015490806002018054610c8f90612196565b80601f0160208091040260200160405190810160405280929190818152602001828054610cbb90612196565b8015610d085780601f10610cdd57610100808354040283529160200191610d08565b820191906000526020600020905b815481529060010190602001808311610ceb57829003601f168201915b5050505050908060030154905084565b610d2a610d23610fa7565b8383611207565b5050565b6000600754905090565b6040517f08c379a0000000000000000000000000000000000000000000000000000000008152600401610d6a90612337565b60405180910390fd5b6060610d7e82610f5c565b6000610d88611373565b90506000815111610da85760405180602001604052806000815250610dd3565b80610db28461138a565b604051602001610dc39291906127cb565b6040516020818303038152906040525b915050919050565b6000600560008473ffffffffffffffffffffffffffffffffffffffff1673ffffffffffffffffffffffffffffffffffffffff16815260200190815260200160002060008373ffffffffffffffffffffffffffffffffffffffff1673ffffffffffffffffffffffffffffffffffffffff16815260200190815260200160002060009054906101000a900460ff16905092915050565b610e77611068565b600073ffffffffffffffffffffffffffffffffffffffff168173ffffffffffffffffffffffffffffffffffffffff1603610ee6576040517f08c379a0000000000000000000000000000000000000000000000000000000008152600401610edd90612861565b60405180910390fd5b610eef81611141565b50565b60007f01ffc9a7000000000000000000000000000000000000000000000000000000007bffffffffffffffffffffffffffffffffffffffffffffffffffffffff1916827bffffffffffffffffffffffffffffffffffffffffffffffffffffffff1916149050919050565b610f6581611458565b610fa4576040517f08c379a0000000000000000000000000000000000000000000000000000000008152600401610f9b906126dd565b60405180910390fd5b50565b600033905090565b816004600083815260200190815260200160002060006101000a81548173ffffffffffffffffffffffffffffffffffffffff021916908373ffffffffffffffffffffffffffffffffffffffff160217905550808273ffffffffffffffffffffffffffffffffffffffff1661102283610846565b73ffffffffffffffffffffffffffffffffffffffff167f8c5be1e5ebec7d5bd14f71427d1e84f3dd0314c0f7b2291e5b200ac8c7c3b92560405160405180910390a45050565b611070610fa7565b73ffffffffffffffffffffffffffffffffffffffff1661108e610b1c565b73ffffffffffffffffffffffffffffffffffffffff16146110e4576040517f08c379a00000000000000000000000000000000000000000000000000000000081526004016110db906128cd565b60405180910390fd5b565b611100828260405180602001604052806000815250611499565b5050565b60006002600083815260200190815260200160002060009054906101000a900473ffffffffffffffffffffffffffffffffffffffff169050919050565b6000600660009054906101000a900473ffffffffffffffffffffffffffffffffffffffff16905081600660006101000a81548173ffffffffffffffffffffffffffffffffffffffff021916908373ffffffffffffffffffffffffffffffffffffffff1602179055508173ffffffffffffffffffffffffffffffffffffffff168173ffffffffffffffffffffffffffffffffffffffff167f8be0079c531659141344cd1fd0a4f28419497f9722a3daafe3b4186f6b6457e060405160405180910390a35050565b8173ffffffffffffffffffffffffffffffffffffffff168373ffffffffffffffffffffffffffffffffffffffff1603611275576040517f08c379a000000000000000000000000000000000000000000000000000000000815260040161126c90612939565b60405180910390fd5b80600560008573ffffffffffffffffffffffffffffffffffffffff1673ffffffffffffffffffffffffffffffffffffffff16815260200190815260200160002060008473ffffffffffffffffffffffffffffffffffffffff1673ffffffffffffffffffffffffffffffffffffffff16815260200190815260200160002060006101000a81548160ff0219169083151502179055508173ffffffffffffffffffffffffffffffffffffffff168373ffffffffffffffffffffffffffffffffffffffff167f17307eab39ab6107e8899845ad3d59bd9653f200f220920489ca2b5937696c31836040516113669190611ace565b60405180910390a3505050565b606060405180602001604052806000815250905090565b606060006001611399846114f4565b01905060008167ffffffffffffffff8111156113b8576113b7611d23565b5b6040519080825280601f01601f1916602001820160405280156113ea5781602001600182028036833780820191505090505b509050600082602001820190505b60011561144d578080600190039150507f3031323334353637383961626364656600000000000000000000000000000000600a86061a8153600a858161144157611440612959565b5b049450600085036113f8575b819350505050919050565b60008073ffffffffffffffffffffffffffffffffffffffff1661147a83611104565b73ffffffffffffffffffffffffffffffffffffffff1614159050919050565b6114a38383611647565b6114b06000848484611864565b6114ef576040517f08c379a00000000000000000000000000000000000000000000000000000000081526004016114e6906129fa565b60405180910390fd5b505050565b600080600090507a184f03e93ff9f4daa797ed6e38ed64bf6a1f0100000000000000008310611552577a184f03e93ff9f4daa797ed6e38ed64bf6a1f010000000000000000838161154857611547612959565b5b0492506040810190505b6d04ee2d6d415b85acef8100000000831061158f576d04ee2d6d415b85acef8100000000838161158557611584612959565b5b0492506020810190505b662386f26fc1000083106115be57662386f26fc1000083816115b4576115b3612959565b5b0492506010810190505b6305f5e10083106115e7576305f5e10083816115dd576115dc612959565b5b0492506008810190505b612710831061160c57612710838161160257611601612959565b5b0492506004810190505b6064831061162f576064838161162557611624612959565b5b0492506002810190505b600a831061163e576001810190505b80915050919050565b600073ffffffffffffffffffffffffffffffffffffffff168273ffffffffffffffffffffffffffffffffffffffff16036116b6576040517f08c379a00000000000000000000000000000000000000000000000000000000081526004016116ad90612a66565b60405180910390fd5b6116bf81611458565b156116ff576040517f08c379a00000000000000000000000000000000000000000000000000000000081526004016116f690612ad2565b60405180910390fd5b61170d6000838360016119eb565b61171681611458565b15611756576040517f08c379a000000000000000000000000000000000000000000000000000000000815260040161174d90612ad2565b60405180910390fd5b6001600360008473ffffffffffffffffffffffffffffffffffffffff1673ffffffffffffffffffffffffffffffffffffffff16815260200190815260200160002060008282540192505081905550816002600083815260200190815260200160002060006101000a81548173ffffffffffffffffffffffffffffffffffffffff021916908373ffffffffffffffffffffffffffffffffffffffff160217905550808273ffffffffffffffffffffffffffffffffffffffff16600073ffffffffffffffffffffffffffffffffffffffff167fddf252ad1be2c89b69c2b068fc378daa952ba7f163c4a11628f55a4df523b3ef60405160405180910390a46118606000838360016119f1565b5050565b60006118858473ffffffffffffffffffffffffffffffffffffffff166119f7565b156119de578373ffffffffffffffffffffffffffffffffffffffff1663150b7a026118ae610fa7565b8786866040518563ffffffff1660e01b81526004016118d09493929190612b47565b6020604051808303816000875af192505050801561190c57506040513d601f19601f820116820180604052508101906119099190612ba8565b60015b61198e573d806000811461193c576040519150601f19603f3d011682016040523d82523d6000602084013e611941565b606091505b506000815103611986576040517f08c379a000000000000000000000000000000000000000000000000000000000815260040161197d906129fa565b60405180910390fd5b805181602001fd5b63150b7a0260e01b7bffffffffffffffffffffffffffffffffffffffffffffffffffffffff1916817bffffffffffffffffffffffffffffffffffffffffffffffffffffffff1916149150506119e3565b600190505b949350505050565b50505050565b50505050565b6000808273ffffffffffffffffffffffffffffffffffffffff163b119050919050565b6000604051905090565b600080fd5b600080fd5b60007fffffffff0000000000000000000000000000000000000000000000000000000082169050919050565b611a6381611a2e565b8114611a6e57600080fd5b50565b600081359050611a8081611a5a565b92915050565b600060208284031215611a9c57611a9b611a24565b5b6000611aaa84828501611a71565b91505092915050565b60008115159050919050565b611ac881611ab3565b82525050565b6000602082019050611ae36000830184611abf565b92915050565b600081519050919050565b600082825260208201905092915050565b60005b83811015611b23578082015181840152602081019050611b08565b60008484015250505050565b6000601f19601f8301169050919050565b6000611b4b82611ae9565b611b558185611af4565b9350611b65818560208601611b05565b611b6e81611b2f565b840191505092915050565b60006020820190508181036000830152611b938184611b40565b905092915050565b6000819050919050565b611bae81611b9b565b8114611bb957600080fd5b50565b600081359050611bcb81611ba5565b92915050565b600060208284031215611be757611be6611a24565b5b6000611bf584828501611bbc565b91505092915050565b600073ffffffffffffffffffffffffffffffffffffffff82169050919050565b6000611c2982611bfe565b9050919050565b611c3981611c1e565b82525050565b6000602082019050611c546000830184611c30565b92915050565b611c6381611c1e565b8114611c6e57600080fd5b50565b600081359050611c8081611c5a565b92915050565b60008060408385031215611c9d57611c9c611a24565b5b6000611cab85828601611c71565b9250506020611cbc85828601611bbc565b9150509250929050565b600080600060608486031215611cdf57611cde611a24565b5b6000611ced86828701611c71565b9350506020611cfe86828701611c71565b9250506040611d0f86828701611bbc565b9150509250925092565b600080fd5b600080fd5b7f4e487b7100000000000000000000000000000000000000000000000000000000600052604160045260246000fd5b611d5b82611b2f565b810181811067ffffffffffffffff82111715611d7a57611d79611d23565b5b80604052505050565b6000611d8d611a1a565b9050611d998282611d52565b919050565b600067ffffffffffffffff821115611db957611db8611d23565b5b611dc282611b2f565b9050602081019050919050565b82818337600083830152505050565b6000611df1611dec84611d9e565b611d83565b905082815260208101848484011115611e0d57611e0c611d1e565b5b611e18848285611dcf565b509392505050565b600082601f830112611e3557611e34611d19565b5b8135611e45848260208601611dde565b91505092915050565b60008060008060808587031215611e6857611e67611a24565b5b6000611e7687828801611c71565b945050602085013567ffffffffffffffff811115611e9757611e96611a29565b5b611ea387828801611e20565b9350506040611eb487828801611bbc565b925050606085013567ffffffffffffffff811115611ed557611ed4611a29565b5b611ee187828801611e20565b91505092959194509250565b611ef681611b9b565b82525050565b6000602082019050611f116000830184611eed565b92915050565b600060208284031215611f2d57611f2c611a24565b5b6000611f3b84828501611c71565b91505092915050565b60006080820190508181036000830152611f5e8187611b40565b9050611f6d6020830186611eed565b8181036040830152611f7f8185611b40565b9050611f8e6060830184611eed565b95945050505050565b611fa081611ab3565b8114611fab57600080fd5b50565b600081359050611fbd81611f97565b92915050565b60008060408385031215611fda57611fd9611a24565b5b6000611fe885828601611c71565b9250506020611ff985828601611fae565b9150509250929050565b600067ffffffffffffffff82111561201e5761201d611d23565b5b61202782611b2f565b9050602081019050919050565b600061204761204284612003565b611d83565b90508281526020810184848401111561206357612062611d1e565b5b61206e848285611dcf565b509392505050565b600082601f83011261208b5761208a611d19565b5b813561209b848260208601612034565b91505092915050565b600080600080608085870312156120be576120bd611a24565b5b60006120cc87828801611c71565b94505060206120dd87828801611c71565b93505060406120ee87828801611bbc565b925050606085013567ffffffffffffffff81111561210f5761210e611a29565b5b61211b87828801612076565b91505092959194509250565b6000806040838503121561213e5761213d611a24565b5b600061214c85828601611c71565b925050602061215d85828601611c71565b9150509250929050565b7f4e487b7100000000000000000000000000000000000000000000000000000000600052602260045260246000fd5b600060028204905060018216806121ae57607f821691505b6020821081036121c1576121c0612167565b5b50919050565b7f4552433732313a20617070726f76616c20746f2063757272656e74206f776e6560008201527f7200000000000000000000000000000000000000000000000000000000000000602082015250565b6000612223602183611af4565b915061222e826121c7565b604082019050919050565b6000602082019050818103600083015261225281612216565b9050919050565b7f4552433732313a20617070726f76652063616c6c6572206973206e6f7420746f60008201527f6b656e206f776e6572206f7220617070726f76656420666f7220616c6c000000602082015250565b60006122b5603d83611af4565b91506122c082612259565b604082019050919050565b600060208201905081810360008301526122e4816122a8565b9050919050565b7f536f756c626f756e643a206e6f6e2d7472616e7366657261626c650000000000600082015250565b6000612321601b83611af4565b915061232c826122eb565b602082019050919050565b6000602082019050818103600083015261235081612314565b9050919050565b7f4e487b7100000000000000000000000000000000000000000000000000000000600052601160045260246000fd5b600061239182611b9b565b91507fffffffffffffffffffffffffffffffffffffffffffffffffffffffffffffffff82036123c3576123c2612357565b5b600182019050919050565b60008190508160005260206000209050919050565b60006020601f8301049050919050565b600082821b905092915050565b6000600883026124307fffffffffffffffffffffffffffffffffffffffffffffffffffffffffffffffff826123f3565b61243a86836123f3565b95508019841693508086168417925050509392505050565b6000819050919050565b600061247761247261246d84611b9b565b612452565b611b9b565b9050919050565b6000819050919050565b6124918361245c565b6124a561249d8261247e565b848454612400565b825550505050565b600090565b6124ba6124ad565b6124c5818484612488565b505050565b5b818110156124e9576124de6000826124b2565b6001810190506124cb565b5050565b601f82111561252e576124ff816123ce565b612508846123e3565b81016020851015612517578190505b61252b612523856123e3565b8301826124ca565b50505b505050565b600082821c905092915050565b600061255160001984600802612533565b1980831691505092915050565b600061256a8383612540565b9150826002028217905092915050565b61258382611ae9565b67ffffffffffffffff81111561259c5761259b611d23565b5b6125a68254612196565b6125b18282856124ed565b600060209050601f8311600181146125e457600084156125d2578287015190505b6125dc858261255e565b865550612644565b601f1984166125f2866123ce565b60005b8281101561261a578489015182556001820191506020850194506020810190506125f5565b868310156126375784890151612633601f891682612540565b8355505b6001600288020188555050505b505050505050565b600060608201905081810360008301526126668186611b40565b90506126756020830185611eed565b81810360408301526126878184611b40565b9050949350505050565b7f4552433732313a20696e76616c696420746f6b656e2049440000000000000000600082015250565b60006126c7601883611af4565b91506126d282612691565b602082019050919050565b600060208201905081810360008301526126f6816126ba565b9050919050565b7f4552433732313a2061646472657373207a65726f206973206e6f74206120766160008201527f6c6964206f776e65720000000000000000000000000000000000000000000000602082015250565b6000612759602983611af4565b9150612764826126fd565b604082019050919050565b600060208201905081810360008301526127888161274c565b9050919050565b600081905092915050565b60006127a582611ae9565b6127af818561278f565b93506127bf818560208601611b05565b80840191505092915050565b60006127d7828561279a565b91506127e3828461279a565b91508190509392505050565b7f4f776e61626c653a206e6577206f776e657220697320746865207a65726f206160008201527f6464726573730000000000000000000000000000000000000000000000000000602082015250565b600061284b602683611af4565b9150612856826127ef565b604082019050919050565b6000602082019050818103600083015261287a8161283e565b9050919050565b7f4f776e61626c653a2063616c6c6572206973206e6f7420746865206f776e6572600082015250565b60006128b7602083611af4565b91506128c282612881565b602082019050919050565b600060208201905081810360008301526128e6816128aa565b9050919050565b7f4552433732313a20617070726f766520746f2063616c6c657200000000000000600082015250565b6000612923601983611af4565b915061292e826128ed565b602082019050919050565b6000602082019050818103600083015261295281612916565b9050919050565b7f4e487b7100000000000000000000000000000000000000000000000000000000600052601260045260246000fd5b7f4552433732313a207472616e7366657220746f206e6f6e20455243373231526560008201527f63656976657220696d706c656d656e7465720000000000000000000000000000602082015250565b60006129e4603283611af4565b91506129ef82612988565b604082019050919050565b60006020820190508181036000830152612a13816129d7565b9050919050565b7f4552433732313a206d696e7420746f20746865207a65726f2061646472657373600082015250565b6000612a50602083611af4565b9150612a5b82612a1a565b602082019050919050565b60006020820190508181036000830152612a7f81612a43565b9050919050565b7f4552433732313a20746f6b656e20616c7265616479206d696e74656400000000600082015250565b6000612abc601c83611af4565b9150612ac782612a86565b602082019050919050565b60006020820190508181036000830152612aeb81612aaf565b9050919050565b600081519050919050565b600082825260208201905092915050565b6000612b1982612af2565b612b238185612afd565b9350612b33818560208601611b05565b612b3c81611b2f565b840191505092915050565b6000608082019050612b5c6000830187611c30565b612b696020830186611c30565b612b766040830185611eed565b8181036060830152612b888184612b0e565b905095945050505050565b600081519050612ba281611a5a565b92915050565b600060208284031215612bbe57612bbd611a24565b5b6000612bcc84828501612b93565b9150509291505056fea2646970667358221220d873d74254bb9b346303c969f671127bbc3ea038fc7d17226a68c9157a025efc64736f6c63430008140033",
  "linkReferences": {},
  "deployedLinkReferences": {}
}